{
  "_format": "hh3-artifact-1",
  "contractName": "PerpDEX",
  "sourceName": "contracts/PerpDEX.sol",
  "abi": [
    {
      "inputs": [
        {
          "internalType": "address",
          "name": "_yusde",
          "type": "address"
        }
      ],
      "stateMutability": "nonpayable",
      "type": "constructor"
    },
    {
      "inputs": [
        {
          "internalType": "address",
          "name": "owner",
          "type": "address"
        }
      ],
      "name": "OwnableInvalidOwner",
      "type": "error"
    },
    {
      "inputs": [
        {
          "internalType": "address",
          "name": "account",
          "type": "address"
        }
      ],
      "name": "OwnableUnauthorizedAccount",
      "type": "error"
    },
    {
      "inputs": [],
      "name": "ReentrancyGuardReentrantCall",
      "type": "error"
    },
    {
      "anonymous": false,
      "inputs": [
        {
          "indexed": true,
          "internalType": "address",
          "name": "previousOwner",
          "type": "address"
        },
        {
          "indexed": true,
          "internalType": "address",
          "name": "newOwner",
          "type": "address"
        }
      ],
      "name": "OwnershipTransferred",
      "type": "event"
    },
    {
      "anonymous": false,
      "inputs": [
        {
          "indexed": true,
          "internalType": "address",
          "name": "user",
          "type": "address"
        },
        {
          "indexed": false,
          "internalType": "uint256",
          "name": "size",
          "type": "uint256"
        },
        {
          "indexed": false,
          "internalType": "uint256",
          "name": "exitPrice",
          "type": "uint256"
        },
        {
          "indexed": false,
          "internalType": "uint256",
          "name": "pnl",
          "type": "uint256"
        }
      ],
      "name": "PositionClosed",
      "type": "event"
    },
    {
      "anonymous": false,
      "inputs": [
        {
          "indexed": true,
          "internalType": "address",
          "name": "user",
          "type": "address"
        },
        {
          "indexed": false,
          "internalType": "uint256",
          "name": "size",
          "type": "uint256"
        },
        {
          "indexed": false,
          "internalType": "uint256",
          "name": "liquidationPrice",
          "type": "uint256"
        }
      ],
      "name": "PositionLiquidated",
      "type": "event"
    },
    {
      "anonymous": false,
      "inputs": [
        {
          "indexed": true,
          "internalType": "address",
          "name": "user",
          "type": "address"
        },
        {
          "indexed": false,
          "internalType": "uint256",
          "name": "size",
          "type": "uint256"
        },
        {
          "indexed": false,
          "internalType": "uint256",
          "name": "entryPrice",
          "type": "uint256"
        },
        {
          "indexed": false,
          "internalType": "uint256",
          "name": "collateral",
          "type": "uint256"
        },
        {
          "indexed": false,
          "internalType": "bool",
          "name": "isLong",
          "type": "bool"
        }
      ],
      "name": "PositionOpened",
      "type": "event"
    },
    {
      "anonymous": false,
      "inputs": [
        {
          "indexed": false,
          "internalType": "string",
          "name": "symbol",
          "type": "string"
        },
        {
          "indexed": false,
          "internalType": "uint256",
          "name": "price",
          "type": "uint256"
        }
      ],
      "name": "PriceUpdated",
      "type": "event"
    },
    {
      "inputs": [],
      "name": "LEVERAGE_MULTIPLIER",
      "outputs": [
        {
          "internalType": "uint256",
          "name": "",
          "type": "uint256"
        }
      ],
      "stateMutability": "view",
      "type": "function"
    },
    {
      "inputs": [],
      "name": "LIQUIDATION_THRESHOLD",
      "outputs": [
        {
          "internalType": "uint256",
          "name": "",
          "type": "uint256"
        }
      ],
      "stateMutability": "view",
      "type": "function"
    },
    {
      "inputs": [],
      "name": "MAX_LEVERAGE",
      "outputs": [
        {
          "internalType": "uint256",
          "name": "",
          "type": "uint256"
        }
      ],
      "stateMutability": "view",
      "type": "function"
    },
    {
      "inputs": [
        {
          "components": [
            {
              "internalType": "uint256",
              "name": "size",
              "type": "uint256"
            },
            {
              "internalType": "uint256",
              "name": "entryPrice",
              "type": "uint256"
            },
            {
              "internalType": "uint256",
              "name": "collateral",
              "type": "uint256"
            },
            {
              "internalType": "bool",
              "name": "isLong",
              "type": "bool"
            },
            {
              "internalType": "uint256",
              "name": "timestamp",
              "type": "uint256"
            }
          ],
          "internalType": "struct PerpDEX.Position",
          "name": "position",
          "type": "tuple"
        },
        {
          "internalType": "uint256",
          "name": "currentPrice",
          "type": "uint256"
        }
      ],
      "name": "calculatePnL",
      "outputs": [
        {
          "internalType": "uint256",
          "name": "",
          "type": "uint256"
        }
      ],
      "stateMutability": "pure",
      "type": "function"
    },
    {
      "inputs": [
        {
          "internalType": "string",
          "name": "symbol",
          "type": "string"
        }
      ],
      "name": "closePosition",
      "outputs": [],
      "stateMutability": "nonpayable",
      "type": "function"
    },
    {
      "inputs": [
        {
          "internalType": "uint256",
          "name": "amount",
          "type": "uint256"
        }
      ],
      "name": "emergencyWithdraw",
      "outputs": [],
      "stateMutability": "nonpayable",
      "type": "function"
    },
    {
      "inputs": [
        {
          "internalType": "address",
          "name": "user",
          "type": "address"
        }
      ],
      "name": "getPosition",
      "outputs": [
        {
          "components": [
            {
              "internalType": "uint256",
              "name": "size",
              "type": "uint256"
            },
            {
              "internalType": "uint256",
              "name": "entryPrice",
              "type": "uint256"
            },
            {
              "internalType": "uint256",
              "name": "collateral",
              "type": "uint256"
            },
            {
              "internalType": "bool",
              "name": "isLong",
              "type": "bool"
            },
            {
              "internalType": "uint256",
              "name": "timestamp",
              "type": "uint256"
            }
          ],
          "internalType": "struct PerpDEX.Position",
          "name": "",
          "type": "tuple"
        }
      ],
      "stateMutability": "view",
      "type": "function"
    },
    {
      "inputs": [
        {
          "internalType": "address",
          "name": "user",
          "type": "address"
        },
        {
          "internalType": "string",
          "name": "symbol",
          "type": "string"
        }
      ],
      "name": "getPositionHealth",
      "outputs": [
        {
          "internalType": "uint256",
          "name": "",
          "type": "uint256"
        }
      ],
      "stateMutability": "view",
      "type": "function"
    },
    {
      "inputs": [
        {
          "internalType": "address",
          "name": "",
          "type": "address"
        }
      ],
      "name": "hasPosition",
      "outputs": [
        {
          "internalType": "bool",
          "name": "",
          "type": "bool"
        }
      ],
      "stateMutability": "view",
      "type": "function"
    },
    {
      "inputs": [
        {
          "internalType": "address",
          "name": "user",
          "type": "address"
        },
        {
          "internalType": "string",
          "name": "symbol",
          "type": "string"
        }
      ],
      "name": "liquidatePosition",
      "outputs": [],
      "stateMutability": "nonpayable",
      "type": "function"
    },
    {
      "inputs": [
        {
          "internalType": "uint256",
          "name": "size",
          "type": "uint256"
        },
        {
          "internalType": "uint256",
          "name": "collateral",
          "type": "uint256"
        },
        {
          "internalType": "bool",
          "name": "isLong",
          "type": "bool"
        },
        {
          "internalType": "string",
          "name": "symbol",
          "type": "string"
        }
      ],
      "name": "openPosition",
      "outputs": [],
      "stateMutability": "nonpayable",
      "type": "function"
    },
    {
      "inputs": [],
      "name": "owner",
      "outputs": [
        {
          "internalType": "address",
          "name": "",
          "type": "address"
        }
      ],
      "stateMutability": "view",
      "type": "function"
    },
    {
      "inputs": [
        {
          "internalType": "address",
          "name": "",
          "type": "address"
        }
      ],
      "name": "positions",
      "outputs": [
        {
          "internalType": "uint256",
          "name": "size",
          "type": "uint256"
        },
        {
          "internalType": "uint256",
          "name": "entryPrice",
          "type": "uint256"
        },
        {
          "internalType": "uint256",
          "name": "collateral",
          "type": "uint256"
        },
        {
          "internalType": "bool",
          "name": "isLong",
          "type": "bool"
        },
        {
          "internalType": "uint256",
          "name": "timestamp",
          "type": "uint256"
        }
      ],
      "stateMutability": "view",
      "type": "function"
    },
    {
      "inputs": [
        {
          "internalType": "string",
          "name": "",
          "type": "string"
        }
      ],
      "name": "priceFeeds",
      "outputs": [
        {
          "internalType": "uint256",
          "name": "",
          "type": "uint256"
        }
      ],
      "stateMutability": "view",
      "type": "function"
    },
    {
      "inputs": [],
      "name": "renounceOwnership",
      "outputs": [],
      "stateMutability": "nonpayable",
      "type": "function"
    },
    {
      "inputs": [
        {
          "components": [
            {
              "internalType": "uint256",
              "name": "size",
              "type": "uint256"
            },
            {
              "internalType": "uint256",
              "name": "entryPrice",
              "type": "uint256"
            },
            {
              "internalType": "uint256",
              "name": "collateral",
              "type": "uint256"
            },
            {
              "internalType": "bool",
              "name": "isLong",
              "type": "bool"
            },
            {
              "internalType": "uint256",
              "name": "timestamp",
              "type": "uint256"
            }
          ],
          "internalType": "struct PerpDEX.Position",
          "name": "position",
          "type": "tuple"
        },
        {
          "internalType": "uint256",
          "name": "currentPrice",
          "type": "uint256"
        }
      ],
      "name": "shouldLiquidate",
      "outputs": [
        {
          "internalType": "bool",
          "name": "",
          "type": "bool"
        }
      ],
      "stateMutability": "pure",
      "type": "function"
    },
    {
      "inputs": [
        {
          "internalType": "address",
          "name": "newOwner",
          "type": "address"
        }
      ],
      "name": "transferOwnership",
      "outputs": [],
      "stateMutability": "nonpayable",
      "type": "function"
    },
    {
      "inputs": [
        {
          "internalType": "string",
          "name": "symbol",
          "type": "string"
        },
        {
          "internalType": "uint256",
          "name": "price",
          "type": "uint256"
        }
      ],
      "name": "updatePrice",
      "outputs": [],
      "stateMutability": "nonpayable",
      "type": "function"
    },
    {
      "inputs": [],
      "name": "yusde",
      "outputs": [
        {
          "internalType": "contract IERC20",
          "name": "",
          "type": "address"
        }
      ],
      "stateMutability": "view",
      "type": "function"
    }
  ],
  "bytecode": "0x60a060405234801561000f575f5ffd5b506040516116d83803806116d883398101604081905261002e916100c1565b338061005357604051631e4fbdf760e01b81525f600482015260240160405180910390fd5b61005c81610072565b50600180556001600160a01b03166080526100ee565b5f80546001600160a01b038381166001600160a01b0319831681178455604051919092169283917f8be0079c531659141344cd1fd0a4f28419497f9722a3daafe3b4186f6b6457e09190a35050565b5f602082840312156100d1575f5ffd5b81516001600160a01b03811681146100e7575f5ffd5b9392505050565b6080516115a86101305f395f81816102fa0152818161062a015281816106e2015281816108cb01528181610a4d01528181610cd00152610fb501526115a85ff3fe608060405234801561000f575f5ffd5b506004361061011c575f3560e01c80638da5cb5b116100a9578063c9d825ff1161006e578063c9d825ff146102e2578063cb80425d146102f5578063cb8ae86c1461031c578063f196157214610347578063f2fde38b1461035a575f5ffd5b80638da5cb5b1461028657806390a8ae9b146102aa578063930408d1146102b35780639b45ec97146102c65780639c89bb3d146102cf575f5ffd5b80634a432a46116100ef5780634a432a46146101e15780635312ea8e146101f657806355f57510146102095780636cfc5d1414610275578063715018a61461027e575f5ffd5b80631334becc1461012057806316c19739146101575780633dd38303146101ad57806340724400146101ce575b5f5ffd5b61014261012e3660046111b6565b60036020525f908152604090205460ff1681565b60405190151581526020015b60405180910390f35b61016a6101653660046111b6565b61036d565b60405161014e91905f60a0820190508251825260208301516020830152604083015160408301526060830151151560608301526080830151608083015292915050565b6101c06101bb366004611275565b6103f5565b60405190815260200161014e565b6101c06101dc3660046112cd565b6104ea565b6101f46101ef366004611355565b61054f565b005b6101f4610204366004611397565b61060b565b61024b6102173660046111b6565b600260208190525f918252604090912080546001820154928201546003830154600490930154919392909160ff9091169085565b6040805195865260208601949094529284019190915215156060830152608082015260a00161014e565b6101c061271081565b6101f4610792565b5f546001600160a01b03165b6040516001600160a01b03909116815260200161014e565b6101c0611f4081565b6101f46102c13660046113ae565b6107a5565b6101c06103e881565b6101f46102dd36600461140d565b610ba8565b6101426102f03660046112cd565b610ddb565b6102927f000000000000000000000000000000000000000000000000000000000000000081565b6101c061032a36600461140d565b805160208183018101805160048252928201919093012091525481565b6101f4610355366004611275565b610e28565b6101f46103683660046111b6565b6110bc565b61039c6040518060a001604052805f81526020015f81526020015f81526020015f151581526020015f81525090565b506001600160a01b03165f90815260026020818152604092839020835160a081018552815481526001820154928101929092529182015492810192909252600381015460ff161515606083015260040154608082015290565b6001600160a01b0382165f9081526003602052604081205460ff1661041b57505f6104e4565b6001600160a01b0383165f908152600260208181526040808420815160a081018352815481526001820154938101939093529283015482820152600383015460ff16151560608301526004928301546080830152519092919061047f908690611447565b9081526020016040518091039020549050805f036104a1575f925050506104e4565b5f6104ac83836104ea565b90505f8184604001516104bf9190611471565b60408501519091506104d361271083611484565b6104dd919061149b565b9450505050505b92915050565b5f82606001511561053457826020015182111561052d57602083015161051081846114ba565b845161051c9190611484565b610526919061149b565b90506104e4565b505f6104e4565b826020015182101561052d57602083015161051083826114ba565b6105576110f6565b5f81116105ab5760405162461bcd60e51b815260206004820152601c60248201527f5072696365206d7573742062652067726561746572207468616e20300000000060448201526064015b60405180910390fd5b806004836040516105bc9190611447565b9081526020016040518091039020819055507f159e83f4712ba2552e68be9d848e49bf6dd35c24f19564ffd523b6549450a2f482826040516105ff9291906114cd565b60405180910390a15050565b6106136110f6565b6040516370a0823160e01b815230600482015281907f00000000000000000000000000000000000000000000000000000000000000006001600160a01b0316906370a0823190602401602060405180830381865afa158015610677573d5f5f3e3d5ffd5b505050506040513d601f19601f8201168201806040525081019061069b9190611509565b10156106e05760405162461bcd60e51b8152602060048201526014602482015273496e73756666696369656e742062616c616e636560601b60448201526064016105a2565b7f00000000000000000000000000000000000000000000000000000000000000006001600160a01b031663a9059cbb6107205f546001600160a01b031690565b6040516001600160e01b031960e084901b1681526001600160a01b039091166004820152602481018490526044016020604051808303815f875af115801561076a573d5f5f3e3d5ffd5b505050506040513d601f19601f8201168201806040525081019061078e9190611520565b5050565b61079a6110f6565b6107a35f611122565b565b6107ad611171565b5f84116107fc5760405162461bcd60e51b815260206004820152601b60248201527f53697a65206d7573742062652067726561746572207468616e2030000000000060448201526064016105a2565b5f83116108555760405162461bcd60e51b815260206004820152602160248201527f436f6c6c61746572616c206d7573742062652067726561746572207468616e206044820152600360fc1b60648201526084016105a2565b335f9081526003602052604090205460ff16156108b45760405162461bcd60e51b815260206004820152601760248201527f506f736974696f6e20616c72656164792065786973747300000000000000000060448201526064016105a2565b6040516370a0823160e01b815233600482015283907f00000000000000000000000000000000000000000000000000000000000000006001600160a01b0316906370a0823190602401602060405180830381865afa158015610918573d5f5f3e3d5ffd5b505050506040513d601f19601f8201168201806040525081019061093c9190611509565b101561098a5760405162461bcd60e51b815260206004820152601a60248201527f496e73756666696369656e742079555344652062616c616e636500000000000060448201526064016105a2565b5f60048260405161099b9190611447565b90815260200160405180910390205490505f81116109cb5760405162461bcd60e51b81526004016105a29061153b565b5f846109d961271088611484565b6109e3919061149b565b90506103e8811115610a2b5760405162461bcd60e51b8152602060048201526011602482015270098caeccae4c2ceca40e8dede40d0d2ced607b1b60448201526064016105a2565b6040516323b872dd60e01b8152336004820152306024820152604481018690527f00000000000000000000000000000000000000000000000000000000000000006001600160a01b0316906323b872dd906064016020604051808303815f875af1158015610a9b573d5f5f3e3d5ffd5b505050506040513d601f19601f82011682018060405250810190610abf9190611520565b506040805160a0810182528781526020808201858152828401898152881515606085019081524260808601908152335f81815260028088528982209851895595516001808a019190915594519588019590955591516003808801805492151560ff1993841617905591516004909701969096559093529084902080549093161790915590517f394925f64ac2066acac5b7e3396dff87b816e8bb2aa2f1e618cd734d753c01a190610b8f90899086908a908a90938452602084019290925260408301521515606082015260800190565b60405180910390a25050610ba260018055565b50505050565b610bb0611171565b335f9081526003602052604090205460ff16610c035760405162461bcd60e51b81526020600482015260126024820152714e6f20706f736974696f6e2065786973747360701b60448201526064016105a2565b335f908152600260208181526040808420815160a081018352815481526001820154938101939093529283015482820152600383015460ff161515606083015260049283015460808301525190929190610c5e908590611447565b90815260200160405180910390205490505f8111610c8e5760405162461bcd60e51b81526004016105a29061153b565b5f610c9983836104ea565b90505f818460400151610cac9190611471565b90508015610d445760405163a9059cbb60e01b8152336004820152602481018290527f00000000000000000000000000000000000000000000000000000000000000006001600160a01b03169063a9059cbb906044016020604051808303815f875af1158015610d1e573d5f5f3e3d5ffd5b505050506040513d601f19601f82011682018060405250810190610d429190611520565b505b335f818152600260208181526040808420848155600181018590559283018490556003808401805460ff1990811690915560049094018590558252928390208054909216909155865182519081529081018690529081018490527fa83f389ef7a9085e50e5689eb7ad9d3e0f0e6bdb4c08ed7d5da097665b1a7c839060600160405180910390a250505050610dd860018055565b50565b5f5f610de784846104ea565b90505f818560400151610dfa9190611471565b90505f612710611f408760400151610e129190611484565b610e1c919061149b565b90911095945050505050565b610e30611171565b6001600160a01b0382165f9081526003602052604090205460ff16610e8c5760405162461bcd60e51b81526020600482015260126024820152714e6f20706f736974696f6e2065786973747360701b60448201526064016105a2565b6001600160a01b0382165f908152600260208181526040808420815160a081018352815481526001820154938101939093529283015482820152600383015460ff161515606083015260049283015460808301525190929190610ef0908590611447565b90815260200160405180910390205490505f8111610f205760405162461bcd60e51b81526004016105a29061153b565b610f2a8282610ddb565b610f765760405162461bcd60e51b815260206004820152601960248201527f506f736974696f6e206e6f74206c6971756964617461626c650000000000000060448201526064016105a2565b5f612710611f408460400151610f8c9190611484565b610f96919061149b565b60405163a9059cbb60e01b8152336004820152602481018290529091507f00000000000000000000000000000000000000000000000000000000000000006001600160a01b03169063a9059cbb906044016020604051808303815f875af1158015611003573d5f5f3e3d5ffd5b505050506040513d601f19601f820116820180604052508101906110279190611520565b506001600160a01b0385165f818152600260208181526040808420848155600181018590559283018490556003808401805460ff1990811690915560049094018590558252928390208054909216909155855182519081529081018590527fb599f4177300bc574d09b859cefe5e758c124ec3c83a343159535a85b0abc3ba910160405180910390a250505061078e60018055565b6110c46110f6565b6001600160a01b0381166110ed57604051631e4fbdf760e01b81525f60048201526024016105a2565b610dd881611122565b5f546001600160a01b031633146107a35760405163118cdaa760e01b81523360048201526024016105a2565b5f80546001600160a01b038381166001600160a01b0319831681178455604051919092169283917f8be0079c531659141344cd1fd0a4f28419497f9722a3daafe3b4186f6b6457e09190a35050565b60026001540361119457604051633ee5aeb560e01b815260040160405180910390fd5b6002600155565b80356001600160a01b03811681146111b1575f5ffd5b919050565b5f602082840312156111c6575f5ffd5b6111cf8261119b565b9392505050565b634e487b7160e01b5f52604160045260245ffd5b5f82601f8301126111f9575f5ffd5b813567ffffffffffffffff811115611213576112136111d6565b604051601f8201601f19908116603f0116810167ffffffffffffffff81118282101715611242576112426111d6565b604052818152838201602001851015611259575f5ffd5b816020850160208301375f918101602001919091529392505050565b5f5f60408385031215611286575f5ffd5b61128f8361119b565b9150602083013567ffffffffffffffff8111156112aa575f5ffd5b6112b6858286016111ea565b9150509250929050565b8015158114610dd8575f5ffd5b5f5f82840360c08112156112df575f5ffd5b60a08112156112ec575f5ffd5b5060405160a0810167ffffffffffffffff81118282101715611310576113106111d6565b6040908152843582526020808601359083015284810135908201526060840135611339816112c0565b6060820152608084810135908201529460a09093013593505050565b5f5f60408385031215611366575f5ffd5b823567ffffffffffffffff81111561137c575f5ffd5b611388858286016111ea565b95602094909401359450505050565b5f602082840312156113a7575f5ffd5b5035919050565b5f5f5f5f608085870312156113c1575f5ffd5b843593506020850135925060408501356113da816112c0565b9150606085013567ffffffffffffffff8111156113f5575f5ffd5b611401878288016111ea565b91505092959194509250565b5f6020828403121561141d575f5ffd5b813567ffffffffffffffff811115611433575f5ffd5b61143f848285016111ea565b949350505050565b5f82518060208501845e5f920191825250919050565b634e487b7160e01b5f52601160045260245ffd5b808201808211156104e4576104e461145d565b80820281158282048414176104e4576104e461145d565b5f826114b557634e487b7160e01b5f52601260045260245ffd5b500490565b818103818111156104e4576104e461145d565b604081525f83518060408401528060208601606085015e5f606082850101526060601f19601f8301168401019150508260208301529392505050565b5f60208284031215611519575f5ffd5b5051919050565b5f60208284031215611530575f5ffd5b81516111cf816112c0565b60208082526018908201527f50726963652066656564206e6f7420617661696c61626c65000000000000000060408201526060019056fea2646970667358221220c16754070b7179329346158511f3e98cdde7a147e196881cd22c5a2804f857f764736f6c634300081c0033",
  "linkReferences": {},
  "deployedLinkReferences": {},
  "immutableReferences": {
    "1020": [
      {
        "length": 32,
        "start": 762
      },
      {
        "length": 32,
        "start": 1578
      },
      {
        "length": 32,
        "start": 1762
      },
      {
        "length": 32,
        "start": 2251
      },
      {
        "length": 32,
        "start": 2637
      },
      {
        "length": 32,
        "start": 3280
      },
      {
        "length": 32,
        "start": 4021
      }
    ]
  },
  "inputSourceName": "project/contracts/PerpDEX.sol",
  "buildInfoId": "solc-0_8_28-c0a632dc5f19782f63b37e632a22c882b5d273c0"
}