{
  "_format": "hh3-artifact-1",
  "contractName": "YieldEngine",
  "sourceName": "contracts/YieldEngine.sol",
  "abi": [
    {
      "inputs": [
        {
          "internalType": "address",
          "name": "_usde",
          "type": "address"
        }
      ],
      "stateMutability": "nonpayable",
      "type": "constructor"
    },
    {
      "inputs": [
        {
          "internalType": "address",
          "name": "spender",
          "type": "address"
        },
        {
          "internalType": "uint256",
          "name": "allowance",
          "type": "uint256"
        },
        {
          "internalType": "uint256",
          "name": "needed",
          "type": "uint256"
        }
      ],
      "name": "ERC20InsufficientAllowance",
      "type": "error"
    },
    {
      "inputs": [
        {
          "internalType": "address",
          "name": "sender",
          "type": "address"
        },
        {
          "internalType": "uint256",
          "name": "balance",
          "type": "uint256"
        },
        {
          "internalType": "uint256",
          "name": "needed",
          "type": "uint256"
        }
      ],
      "name": "ERC20InsufficientBalance",
      "type": "error"
    },
    {
      "inputs": [
        {
          "internalType": "address",
          "name": "approver",
          "type": "address"
        }
      ],
      "name": "ERC20InvalidApprover",
      "type": "error"
    },
    {
      "inputs": [
        {
          "internalType": "address",
          "name": "receiver",
          "type": "address"
        }
      ],
      "name": "ERC20InvalidReceiver",
      "type": "error"
    },
    {
      "inputs": [
        {
          "internalType": "address",
          "name": "sender",
          "type": "address"
        }
      ],
      "name": "ERC20InvalidSender",
      "type": "error"
    },
    {
      "inputs": [
        {
          "internalType": "address",
          "name": "spender",
          "type": "address"
        }
      ],
      "name": "ERC20InvalidSpender",
      "type": "error"
    },
    {
      "inputs": [
        {
          "internalType": "address",
          "name": "owner",
          "type": "address"
        }
      ],
      "name": "OwnableInvalidOwner",
      "type": "error"
    },
    {
      "inputs": [
        {
          "internalType": "address",
          "name": "account",
          "type": "address"
        }
      ],
      "name": "OwnableUnauthorizedAccount",
      "type": "error"
    },
    {
      "inputs": [],
      "name": "ReentrancyGuardReentrantCall",
      "type": "error"
    },
    {
      "anonymous": false,
      "inputs": [
        {
          "indexed": true,
          "internalType": "address",
          "name": "owner",
          "type": "address"
        },
        {
          "indexed": true,
          "internalType": "address",
          "name": "spender",
          "type": "address"
        },
        {
          "indexed": false,
          "internalType": "uint256",
          "name": "value",
          "type": "uint256"
        }
      ],
      "name": "Approval",
      "type": "event"
    },
    {
      "anonymous": false,
      "inputs": [
        {
          "indexed": true,
          "internalType": "address",
          "name": "previousOwner",
          "type": "address"
        },
        {
          "indexed": true,
          "internalType": "address",
          "name": "newOwner",
          "type": "address"
        }
      ],
      "name": "OwnershipTransferred",
      "type": "event"
    },
    {
      "anonymous": false,
      "inputs": [
        {
          "indexed": true,
          "internalType": "address",
          "name": "user",
          "type": "address"
        },
        {
          "indexed": false,
          "internalType": "uint256",
          "name": "amount",
          "type": "uint256"
        },
        {
          "indexed": false,
          "internalType": "uint256",
          "name": "timestamp",
          "type": "uint256"
        }
      ],
      "name": "Staked",
      "type": "event"
    },
    {
      "anonymous": false,
      "inputs": [
        {
          "indexed": true,
          "internalType": "address",
          "name": "from",
          "type": "address"
        },
        {
          "indexed": true,
          "internalType": "address",
          "name": "to",
          "type": "address"
        },
        {
          "indexed": false,
          "internalType": "uint256",
          "name": "value",
          "type": "uint256"
        }
      ],
      "name": "Transfer",
      "type": "event"
    },
    {
      "anonymous": false,
      "inputs": [
        {
          "indexed": true,
          "internalType": "address",
          "name": "user",
          "type": "address"
        },
        {
          "indexed": false,
          "internalType": "uint256",
          "name": "amount",
          "type": "uint256"
        },
        {
          "indexed": false,
          "internalType": "uint256",
          "name": "yield",
          "type": "uint256"
        }
      ],
      "name": "Unstaked",
      "type": "event"
    },
    {
      "anonymous": false,
      "inputs": [
        {
          "indexed": true,
          "internalType": "address",
          "name": "user",
          "type": "address"
        },
        {
          "indexed": false,
          "internalType": "uint256",
          "name": "yield",
          "type": "uint256"
        }
      ],
      "name": "YieldClaimed",
      "type": "event"
    },
    {
      "inputs": [],
      "name": "FULL_RATE",
      "outputs": [
        {
          "internalType": "uint256",
          "name": "",
          "type": "uint256"
        }
      ],
      "stateMutability": "view",
      "type": "function"
    },
    {
      "inputs": [],
      "name": "SECONDS_PER_YEAR",
      "outputs": [
        {
          "internalType": "uint256",
          "name": "",
          "type": "uint256"
        }
      ],
      "stateMutability": "view",
      "type": "function"
    },
    {
      "inputs": [],
      "name": "YIELD_RATE",
      "outputs": [
        {
          "internalType": "uint256",
          "name": "",
          "type": "uint256"
        }
      ],
      "stateMutability": "view",
      "type": "function"
    },
    {
      "inputs": [
        {
          "internalType": "address",
          "name": "owner",
          "type": "address"
        },
        {
          "internalType": "address",
          "name": "spender",
          "type": "address"
        }
      ],
      "name": "allowance",
      "outputs": [
        {
          "internalType": "uint256",
          "name": "",
          "type": "uint256"
        }
      ],
      "stateMutability": "view",
      "type": "function"
    },
    {
      "inputs": [
        {
          "internalType": "address",
          "name": "spender",
          "type": "address"
        },
        {
          "internalType": "uint256",
          "name": "value",
          "type": "uint256"
        }
      ],
      "name": "approve",
      "outputs": [
        {
          "internalType": "bool",
          "name": "",
          "type": "bool"
        }
      ],
      "stateMutability": "nonpayable",
      "type": "function"
    },
    {
      "inputs": [
        {
          "internalType": "address",
          "name": "account",
          "type": "address"
        }
      ],
      "name": "balanceOf",
      "outputs": [
        {
          "internalType": "uint256",
          "name": "",
          "type": "uint256"
        }
      ],
      "stateMutability": "view",
      "type": "function"
    },
    {
      "inputs": [
        {
          "internalType": "address",
          "name": "user",
          "type": "address"
        },
        {
          "internalType": "uint256",
          "name": "amount",
          "type": "uint256"
        }
      ],
      "name": "calculateYield",
      "outputs": [
        {
          "internalType": "uint256",
          "name": "",
          "type": "uint256"
        }
      ],
      "stateMutability": "view",
      "type": "function"
    },
    {
      "inputs": [],
      "name": "claimYield",
      "outputs": [],
      "stateMutability": "nonpayable",
      "type": "function"
    },
    {
      "inputs": [],
      "name": "decimals",
      "outputs": [
        {
          "internalType": "uint8",
          "name": "",
          "type": "uint8"
        }
      ],
      "stateMutability": "view",
      "type": "function"
    },
    {
      "inputs": [],
      "name": "getTotalStaked",
      "outputs": [
        {
          "internalType": "uint256",
          "name": "",
          "type": "uint256"
        }
      ],
      "stateMutability": "view",
      "type": "function"
    },
    {
      "inputs": [
        {
          "internalType": "address",
          "name": "user",
          "type": "address"
        }
      ],
      "name": "getUserStakingInfo",
      "outputs": [
        {
          "internalType": "uint256",
          "name": "stakedAmount",
          "type": "uint256"
        },
        {
          "internalType": "uint256",
          "name": "stakedTime",
          "type": "uint256"
        },
        {
          "internalType": "uint256",
          "name": "yield",
          "type": "uint256"
        }
      ],
      "stateMutability": "view",
      "type": "function"
    },
    {
      "inputs": [
        {
          "internalType": "address",
          "name": "user",
          "type": "address"
        }
      ],
      "name": "getUserYield",
      "outputs": [
        {
          "internalType": "uint256",
          "name": "",
          "type": "uint256"
        }
      ],
      "stateMutability": "view",
      "type": "function"
    },
    {
      "inputs": [],
      "name": "name",
      "outputs": [
        {
          "internalType": "string",
          "name": "",
          "type": "string"
        }
      ],
      "stateMutability": "view",
      "type": "function"
    },
    {
      "inputs": [],
      "name": "owner",
      "outputs": [
        {
          "internalType": "address",
          "name": "",
          "type": "address"
        }
      ],
      "stateMutability": "view",
      "type": "function"
    },
    {
      "inputs": [],
      "name": "renounceOwnership",
      "outputs": [],
      "stateMutability": "nonpayable",
      "type": "function"
    },
    {
      "inputs": [
        {
          "internalType": "uint256",
          "name": "amount",
          "type": "uint256"
        }
      ],
      "name": "stake",
      "outputs": [],
      "stateMutability": "nonpayable",
      "type": "function"
    },
    {
      "inputs": [],
      "name": "symbol",
      "outputs": [
        {
          "internalType": "string",
          "name": "",
          "type": "string"
        }
      ],
      "stateMutability": "view",
      "type": "function"
    },
    {
      "inputs": [],
      "name": "totalStaked",
      "outputs": [
        {
          "internalType": "uint256",
          "name": "",
          "type": "uint256"
        }
      ],
      "stateMutability": "view",
      "type": "function"
    },
    {
      "inputs": [],
      "name": "totalSupply",
      "outputs": [
        {
          "internalType": "uint256",
          "name": "",
          "type": "uint256"
        }
      ],
      "stateMutability": "view",
      "type": "function"
    },
    {
      "inputs": [
        {
          "internalType": "address",
          "name": "to",
          "type": "address"
        },
        {
          "internalType": "uint256",
          "name": "value",
          "type": "uint256"
        }
      ],
      "name": "transfer",
      "outputs": [
        {
          "internalType": "bool",
          "name": "",
          "type": "bool"
        }
      ],
      "stateMutability": "nonpayable",
      "type": "function"
    },
    {
      "inputs": [
        {
          "internalType": "address",
          "name": "from",
          "type": "address"
        },
        {
          "internalType": "address",
          "name": "to",
          "type": "address"
        },
        {
          "internalType": "uint256",
          "name": "value",
          "type": "uint256"
        }
      ],
      "name": "transferFrom",
      "outputs": [
        {
          "internalType": "bool",
          "name": "",
          "type": "bool"
        }
      ],
      "stateMutability": "nonpayable",
      "type": "function"
    },
    {
      "inputs": [
        {
          "internalType": "address",
          "name": "newOwner",
          "type": "address"
        }
      ],
      "name": "transferOwnership",
      "outputs": [],
      "stateMutability": "nonpayable",
      "type": "function"
    },
    {
      "inputs": [
        {
          "internalType": "uint256",
          "name": "amount",
          "type": "uint256"
        }
      ],
      "name": "unstake",
      "outputs": [],
      "stateMutability": "nonpayable",
      "type": "function"
    },
    {
      "inputs": [],
      "name": "usde",
      "outputs": [
        {
          "internalType": "contract IERC20",
          "name": "",
          "type": "address"
        }
      ],
      "stateMutability": "view",
      "type": "function"
    },
    {
      "inputs": [
        {
          "internalType": "address",
          "name": "",
          "type": "address"
        }
      ],
      "name": "userStakedAmount",
      "outputs": [
        {
          "internalType": "uint256",
          "name": "",
          "type": "uint256"
        }
      ],
      "stateMutability": "view",
      "type": "function"
    },
    {
      "inputs": [
        {
          "internalType": "address",
          "name": "",
          "type": "address"
        }
      ],
      "name": "userStakedTime",
      "outputs": [
        {
          "internalType": "uint256",
          "name": "",
          "type": "uint256"
        }
      ],
      "stateMutability": "view",
      "type": "function"
    }
  ],
  "bytecode": "0x60a060405234801561000f575f5ffd5b506040516117e93803806117e983398101604081905261002e9161012e565b336040518060400160405280600b81526020016a5374616b6564205553446560a81b81525060405180604001604052806005815260200164735553446560d81b815250816003908161008091906101f3565b50600461008d82826101f3565b5050506001600160a01b0381166100bd57604051631e4fbdf760e01b81525f600482015260240160405180910390fd5b6100c6816100dd565b5060016006556001600160a01b03166080526102ad565b600580546001600160a01b038381166001600160a01b0319831681179093556040519116919082907f8be0079c531659141344cd1fd0a4f28419497f9722a3daafe3b4186f6b6457e0905f90a35050565b5f6020828403121561013e575f5ffd5b81516001600160a01b0381168114610154575f5ffd5b9392505050565b634e487b7160e01b5f52604160045260245ffd5b600181811c9082168061018357607f821691505b6020821081036101a157634e487b7160e01b5f52602260045260245ffd5b50919050565b601f8211156101ee57805f5260205f20601f840160051c810160208510156101cc5750805b601f840160051c820191505b818110156101eb575f81556001016101d8565b50505b505050565b81516001600160401b0381111561020c5761020c61015b565b6102208161021a845461016f565b846101a7565b6020601f821160018114610252575f831561023b5750848201515b5f19600385901b1c1916600184901b1784556101eb565b5f84815260208120601f198516915b828110156102815787850151825560209485019460019092019101610261565b508482101561029e57868401515f19600387901b60f8161c191681555b50505050600190811b01905550565b6080516114f36102f65f395f81816101e3015281816105d2015281816106ad0152818161084f0152818161092201528181610abf01528181610ba00152610fe501526114f35ff3fe608060405234801561000f575f5ffd5b5060043610610187575f3560e01c8063715018a6116100d9578063a694fc3a11610093578063e6a69ab81161006e578063e6a69ab81461039c578063e852090a146103a7578063f2fde38b146103b0578063f54b7fb4146103c3575f5ffd5b8063a694fc3a1461033e578063a9059cbb14610351578063dd62ed3e14610364575f5ffd5b8063715018a6146102c757806380933608146102cf578063817b1cd2146102fd5780638da5cb5b146103065780638e4647ee1461031757806395d89b4114610336575f5ffd5b806323b872dd11610144578063406cf2291161011f578063406cf2291461027b5780634229abdd146102835780634986561e1461029657806370a082311461029f575f5ffd5b806323b872dd146102445780632e17de7814610257578063313ce5671461026c575f5ffd5b806306fdde031461018b5780630917e776146101a9578063095ea7b3146101bb5780630fd761e0146101de57806311de90571461021d57806318160ddd1461023c575b5f5ffd5b6101936103d6565b6040516101a091906112c5565b60405180910390f35b6009545b6040519081526020016101a0565b6101ce6101c9366004611315565b610466565b60405190151581526020016101a0565b6102057f000000000000000000000000000000000000000000000000000000000000000081565b6040516001600160a01b0390911681526020016101a0565b6101ad61022b36600461133d565b60086020525f908152604090205481565b6002546101ad565b6101ce61025236600461135d565b61047f565b61026a610265366004611397565b6104a2565b005b604051601281526020016101a0565b61026a61076a565b6101ad61029136600461133d565b6109d7565b6101ad61271081565b6101ad6102ad36600461133d565b6001600160a01b03165f9081526020819052604090205490565b61026a6109fa565b6102e26102dd36600461133d565b610a0b565b604080519384526020840192909252908201526060016101a0565b6101ad60095481565b6005546001600160a01b0316610205565b6101ad61032536600461133d565b60076020525f908152604090205481565b610193610a42565b61026a61034c366004611397565b610a51565b6101ce61035f366004611315565b610cca565b6101ad6103723660046113ae565b6001600160a01b039182165f90815260016020908152604080832093909416825291909152205490565b6101ad6301e1338081565b6101ad6101f481565b61026a6103be36600461133d565b610cd7565b6101ad6103d1366004611315565b610d11565b6060600380546103e5906113df565b80601f0160208091040260200160405190810160405280929190818152602001828054610411906113df565b801561045c5780601f106104335761010080835404028352916020019161045c565b820191905f5260205f20905b81548152906001019060200180831161043f57829003601f168201915b5050505050905090565b5f33610473818585610d95565b60019150505b92915050565b5f3361048c858285610da7565b610497858585610e23565b506001949350505050565b6104aa610e80565b5f81116104fe5760405162461bcd60e51b815260206004820152601d60248201527f416d6f756e74206d7573742062652067726561746572207468616e203000000060448201526064015b60405180910390fd5b335f9081526020819052604090205481111561055c5760405162461bcd60e51b815260206004820152601a60248201527f496e73756666696369656e742073555344652062616c616e636500000000000060448201526064016104f5565b5f6105673383610d11565b90505f610574828461142b565b90506105803384610eaa565b335f908152600760205260408120805485929061059e90849061143e565b925050819055508260095f8282546105b6919061143e565b90915550506040516370a0823160e01b815230600482015281907f00000000000000000000000000000000000000000000000000000000000000006001600160a01b0316906370a0823190602401602060405180830381865afa15801561061f573d5f5f3e3d5ffd5b505050506040513d601f19601f820116820180604052508101906106439190611451565b10156106915760405162461bcd60e51b815260206004820152601d60248201527f496e73756666696369656e74205553446520696e20636f6e747261637400000060448201526064016104f5565b60405163a9059cbb60e01b8152336004820152602481018290527f00000000000000000000000000000000000000000000000000000000000000006001600160a01b03169063a9059cbb906044016020604051808303815f875af11580156106fb573d5f5f3e3d5ffd5b505050506040513d601f19601f8201168201806040525081019061071f9190611468565b50604080518481526020810184905233917f7fc4727e062e336010f2c282598ef5f14facb3de68cf8195c2f23e1454b2b74e910160405180910390a250506107676001600655565b50565b610772610e80565b335f908152600760205260409020546107c05760405162461bcd60e51b815260206004820152601060248201526f139bc81cdd185ad95908185b5bdd5b9d60821b60448201526064016104f5565b335f8181526007602052604081205490916107da91610d11565b90505f811161081f5760405162461bcd60e51b81526020600482015260116024820152704e6f207969656c6420746f20636c61696d60781b60448201526064016104f5565b335f9081526008602052604090819020429055516370a0823160e01b815230600482015281906001600160a01b037f000000000000000000000000000000000000000000000000000000000000000016906370a0823190602401602060405180830381865afa158015610894573d5f5f3e3d5ffd5b505050506040513d601f19601f820116820180604052508101906108b89190611451565b10156109065760405162461bcd60e51b815260206004820152601b60248201527f496e73756666696369656e74205553446520666f72207969656c64000000000060448201526064016104f5565b60405163a9059cbb60e01b8152336004820152602481018290527f00000000000000000000000000000000000000000000000000000000000000006001600160a01b03169063a9059cbb906044016020604051808303815f875af1158015610970573d5f5f3e3d5ffd5b505050506040513d601f19601f820116820180604052508101906109949190611468565b5060405181815233907fc04825ba3f383b602255d2a13065a68e325c65c9e0ed5d031ea2b06f641873af9060200160405180910390a2506109d56001600655565b565b6001600160a01b0381165f90815260076020526040812054610479908390610d11565b610a02610ee2565b6109d55f610f0f565b6001600160a01b0381165f9081526007602090815260408083205460089092528220549091610a3a8484610d11565b929491935050565b6060600480546103e5906113df565b610a59610e80565b5f8111610aa85760405162461bcd60e51b815260206004820152601d60248201527f416d6f756e74206d7573742062652067726561746572207468616e203000000060448201526064016104f5565b6040516370a0823160e01b815233600482015281907f00000000000000000000000000000000000000000000000000000000000000006001600160a01b0316906370a0823190602401602060405180830381865afa158015610b0c573d5f5f3e3d5ffd5b505050506040513d601f19601f82011682018060405250810190610b309190611451565b1015610b7e5760405162461bcd60e51b815260206004820152601960248201527f496e73756666696369656e7420555344652062616c616e63650000000000000060448201526064016104f5565b6040516323b872dd60e01b8152336004820152306024820152604481018290527f00000000000000000000000000000000000000000000000000000000000000006001600160a01b0316906323b872dd906064016020604051808303815f875af1158015610bee573d5f5f3e3d5ffd5b505050506040513d601f19601f82011682018060405250810190610c129190611468565b50335f9081526007602052604090205415610c3057610c3033610f60565b335f9081526007602052604081208054839290610c4e90849061142b565b9091555050335f90815260086020526040812042905560098054839290610c7690849061142b565b90915550610c8690503382611099565b6040805182815242602082015233917f1449c6dd7851abc30abf37f57715f492010519147cc2652fbc38202c18a6ee90910160405180910390a26107676001600655565b5f33610473818585610e23565b610cdf610ee2565b6001600160a01b038116610d0857604051631e4fbdf760e01b81525f60048201526024016104f5565b61076781610f0f565b6001600160a01b0382165f908152600860205260408120548103610d3657505f610479565b6001600160a01b0383165f90815260086020526040812054610d58904261143e565b90505f610d6b6301e13380612710611487565b82610d786101f487611487565b610d829190611487565b610d8c919061149e565b95945050505050565b610da283838360016110cd565b505050565b6001600160a01b038381165f908152600160209081526040808320938616835292905220545f19811015610e1d5781811015610e0f57604051637dc7a0d960e11b81526001600160a01b038416600482015260248101829052604481018390526064016104f5565b610e1d84848484035f6110cd565b50505050565b6001600160a01b038316610e4c57604051634b637e8f60e11b81525f60048201526024016104f5565b6001600160a01b038216610e755760405163ec442f0560e01b81525f60048201526024016104f5565b610da283838361119f565b600260065403610ea357604051633ee5aeb560e01b815260040160405180910390fd5b6002600655565b6001600160a01b038216610ed357604051634b637e8f60e11b81525f60048201526024016104f5565b610ede825f8361119f565b5050565b6005546001600160a01b031633146109d55760405163118cdaa760e01b81523360048201526024016104f5565b600580546001600160a01b038381166001600160a01b0319831681179093556040519116919082907f8be0079c531659141344cd1fd0a4f28419497f9722a3daafe3b4186f6b6457e0905f90a35050565b6001600160a01b0381165f908152600860205260408120549003610f815750565b6001600160a01b0381165f90815260076020526040812054610fa4908390610d11565b90508015610ede576001600160a01b038281165f81815260086020526040908190204290555163a9059cbb60e01b81526004810191909152602481018390527f00000000000000000000000000000000000000000000000000000000000000009091169063a9059cbb906044016020604051808303815f875af115801561102d573d5f5f3e3d5ffd5b505050506040513d601f19601f820116820180604052508101906110519190611468565b50816001600160a01b03167fc04825ba3f383b602255d2a13065a68e325c65c9e0ed5d031ea2b06f641873af8260405161108d91815260200190565b60405180910390a25050565b6001600160a01b0382166110c25760405163ec442f0560e01b81525f60048201526024016104f5565b610ede5f838361119f565b6001600160a01b0384166110f65760405163e602df0560e01b81525f60048201526024016104f5565b6001600160a01b03831661111f57604051634a1406b160e11b81525f60048201526024016104f5565b6001600160a01b038085165f9081526001602090815260408083209387168352929052208290558015610e1d57826001600160a01b0316846001600160a01b03167f8c5be1e5ebec7d5bd14f71427d1e84f3dd0314c0f7b2291e5b200ac8c7c3b9258460405161119191815260200190565b60405180910390a350505050565b6001600160a01b0383166111c9578060025f8282546111be919061142b565b909155506112399050565b6001600160a01b0383165f908152602081905260409020548181101561121b5760405163391434e360e21b81526001600160a01b038516600482015260248101829052604481018390526064016104f5565b6001600160a01b0384165f9081526020819052604090209082900390555b6001600160a01b03821661125557600280548290039055611273565b6001600160a01b0382165f9081526020819052604090208054820190555b816001600160a01b0316836001600160a01b03167fddf252ad1be2c89b69c2b068fc378daa952ba7f163c4a11628f55a4df523b3ef836040516112b891815260200190565b60405180910390a3505050565b602081525f82518060208401528060208501604085015e5f604082850101526040601f19601f83011684010191505092915050565b80356001600160a01b0381168114611310575f5ffd5b919050565b5f5f60408385031215611326575f5ffd5b61132f836112fa565b946020939093013593505050565b5f6020828403121561134d575f5ffd5b611356826112fa565b9392505050565b5f5f5f6060848603121561136f575f5ffd5b611378846112fa565b9250611386602085016112fa565b929592945050506040919091013590565b5f602082840312156113a7575f5ffd5b5035919050565b5f5f604083850312156113bf575f5ffd5b6113c8836112fa565b91506113d6602084016112fa565b90509250929050565b600181811c908216806113f357607f821691505b60208210810361141157634e487b7160e01b5f52602260045260245ffd5b50919050565b634e487b7160e01b5f52601160045260245ffd5b8082018082111561047957610479611417565b8181038181111561047957610479611417565b5f60208284031215611461575f5ffd5b5051919050565b5f60208284031215611478575f5ffd5b81518015158114611356575f5ffd5b808202811582820484141761047957610479611417565b5f826114b857634e487b7160e01b5f52601260045260245ffd5b50049056fea2646970667358221220fd952e86f3ad8d136d25a9d71ac9d3f60a1692b175140e7aa92b23cef7a0ed7564736f6c634300081c0033",
  "linkReferences": {},
  "deployedLinkReferences": {},
  "immutableReferences": {
    "1022": [
      {
        "length": 32,
        "start": 483
      },
      {
        "length": 32,
        "start": 1490
      },
      {
        "length": 32,
        "start": 1709
      },
      {
        "length": 32,
        "start": 2127
      },
      {
        "length": 32,
        "start": 2338
      },
      {
        "length": 32,
        "start": 2751
      },
      {
        "length": 32,
        "start": 2976
      },
      {
        "length": 32,
        "start": 4069
      }
    ]
  },
  "inputSourceName": "project/contracts/YieldEngine.sol",
  "buildInfoId": "solc-0_8_28-3a0768ce3bcc8017eb946a74d40e0ca7e46768aa"
}