{
  "_format": "hh3-artifact-1",
  "contractName": "YUSDe",
  "sourceName": "contracts/YUSDe.sol",
  "abi": [
    {
      "inputs": [
        {
          "internalType": "address",
          "name": "_susde",
          "type": "address"
        }
      ],
      "stateMutability": "nonpayable",
      "type": "constructor"
    },
    {
      "inputs": [
        {
          "internalType": "address",
          "name": "spender",
          "type": "address"
        },
        {
          "internalType": "uint256",
          "name": "allowance",
          "type": "uint256"
        },
        {
          "internalType": "uint256",
          "name": "needed",
          "type": "uint256"
        }
      ],
      "name": "ERC20InsufficientAllowance",
      "type": "error"
    },
    {
      "inputs": [
        {
          "internalType": "address",
          "name": "sender",
          "type": "address"
        },
        {
          "internalType": "uint256",
          "name": "balance",
          "type": "uint256"
        },
        {
          "internalType": "uint256",
          "name": "needed",
          "type": "uint256"
        }
      ],
      "name": "ERC20InsufficientBalance",
      "type": "error"
    },
    {
      "inputs": [
        {
          "internalType": "address",
          "name": "approver",
          "type": "address"
        }
      ],
      "name": "ERC20InvalidApprover",
      "type": "error"
    },
    {
      "inputs": [
        {
          "internalType": "address",
          "name": "receiver",
          "type": "address"
        }
      ],
      "name": "ERC20InvalidReceiver",
      "type": "error"
    },
    {
      "inputs": [
        {
          "internalType": "address",
          "name": "sender",
          "type": "address"
        }
      ],
      "name": "ERC20InvalidSender",
      "type": "error"
    },
    {
      "inputs": [
        {
          "internalType": "address",
          "name": "spender",
          "type": "address"
        }
      ],
      "name": "ERC20InvalidSpender",
      "type": "error"
    },
    {
      "inputs": [
        {
          "internalType": "address",
          "name": "owner",
          "type": "address"
        }
      ],
      "name": "OwnableInvalidOwner",
      "type": "error"
    },
    {
      "inputs": [
        {
          "internalType": "address",
          "name": "account",
          "type": "address"
        }
      ],
      "name": "OwnableUnauthorizedAccount",
      "type": "error"
    },
    {
      "anonymous": false,
      "inputs": [
        {
          "indexed": true,
          "internalType": "address",
          "name": "owner",
          "type": "address"
        },
        {
          "indexed": true,
          "internalType": "address",
          "name": "spender",
          "type": "address"
        },
        {
          "indexed": false,
          "internalType": "uint256",
          "name": "value",
          "type": "uint256"
        }
      ],
      "name": "Approval",
      "type": "event"
    },
    {
      "anonymous": false,
      "inputs": [
        {
          "indexed": true,
          "internalType": "address",
          "name": "user",
          "type": "address"
        },
        {
          "indexed": false,
          "internalType": "uint256",
          "name": "yusdeAmount",
          "type": "uint256"
        },
        {
          "indexed": false,
          "internalType": "uint256",
          "name": "susdeAmount",
          "type": "uint256"
        }
      ],
      "name": "Burned",
      "type": "event"
    },
    {
      "anonymous": false,
      "inputs": [
        {
          "indexed": true,
          "internalType": "address",
          "name": "user",
          "type": "address"
        },
        {
          "indexed": false,
          "internalType": "uint256",
          "name": "susdeAmount",
          "type": "uint256"
        },
        {
          "indexed": false,
          "internalType": "uint256",
          "name": "yusdeAmount",
          "type": "uint256"
        }
      ],
      "name": "Minted",
      "type": "event"
    },
    {
      "anonymous": false,
      "inputs": [
        {
          "indexed": true,
          "internalType": "address",
          "name": "previousOwner",
          "type": "address"
        },
        {
          "indexed": true,
          "internalType": "address",
          "name": "newOwner",
          "type": "address"
        }
      ],
      "name": "OwnershipTransferred",
      "type": "event"
    },
    {
      "anonymous": false,
      "inputs": [
        {
          "indexed": true,
          "internalType": "address",
          "name": "from",
          "type": "address"
        },
        {
          "indexed": true,
          "internalType": "address",
          "name": "to",
          "type": "address"
        },
        {
          "indexed": false,
          "internalType": "uint256",
          "name": "value",
          "type": "uint256"
        }
      ],
      "name": "Transfer",
      "type": "event"
    },
    {
      "inputs": [],
      "name": "COLLATERAL_RATIO",
      "outputs": [
        {
          "internalType": "uint256",
          "name": "",
          "type": "uint256"
        }
      ],
      "stateMutability": "view",
      "type": "function"
    },
    {
      "inputs": [],
      "name": "FULL_RATIO",
      "outputs": [
        {
          "internalType": "uint256",
          "name": "",
          "type": "uint256"
        }
      ],
      "stateMutability": "view",
      "type": "function"
    },
    {
      "inputs": [
        {
          "internalType": "address",
          "name": "owner",
          "type": "address"
        },
        {
          "internalType": "address",
          "name": "spender",
          "type": "address"
        }
      ],
      "name": "allowance",
      "outputs": [
        {
          "internalType": "uint256",
          "name": "",
          "type": "uint256"
        }
      ],
      "stateMutability": "view",
      "type": "function"
    },
    {
      "inputs": [
        {
          "internalType": "address",
          "name": "spender",
          "type": "address"
        },
        {
          "internalType": "uint256",
          "name": "value",
          "type": "uint256"
        }
      ],
      "name": "approve",
      "outputs": [
        {
          "internalType": "bool",
          "name": "",
          "type": "bool"
        }
      ],
      "stateMutability": "nonpayable",
      "type": "function"
    },
    {
      "inputs": [
        {
          "internalType": "address",
          "name": "account",
          "type": "address"
        }
      ],
      "name": "balanceOf",
      "outputs": [
        {
          "internalType": "uint256",
          "name": "",
          "type": "uint256"
        }
      ],
      "stateMutability": "view",
      "type": "function"
    },
    {
      "inputs": [
        {
          "internalType": "uint256",
          "name": "yusdeAmount",
          "type": "uint256"
        }
      ],
      "name": "burn",
      "outputs": [
        {
          "internalType": "uint256",
          "name": "",
          "type": "uint256"
        }
      ],
      "stateMutability": "nonpayable",
      "type": "function"
    },
    {
      "inputs": [],
      "name": "decimals",
      "outputs": [
        {
          "internalType": "uint8",
          "name": "",
          "type": "uint8"
        }
      ],
      "stateMutability": "view",
      "type": "function"
    },
    {
      "inputs": [
        {
          "internalType": "uint256",
          "name": "amount",
          "type": "uint256"
        }
      ],
      "name": "emergencyWithdraw",
      "outputs": [],
      "stateMutability": "nonpayable",
      "type": "function"
    },
    {
      "inputs": [
        {
          "internalType": "uint256",
          "name": "yusdeAmount",
          "type": "uint256"
        }
      ],
      "name": "getBackingAmount",
      "outputs": [
        {
          "internalType": "uint256",
          "name": "",
          "type": "uint256"
        }
      ],
      "stateMutability": "pure",
      "type": "function"
    },
    {
      "inputs": [
        {
          "internalType": "uint256",
          "name": "susdeAmount",
          "type": "uint256"
        }
      ],
      "name": "getCollateralAmount",
      "outputs": [
        {
          "internalType": "uint256",
          "name": "",
          "type": "uint256"
        }
      ],
      "stateMutability": "pure",
      "type": "function"
    },
    {
      "inputs": [],
      "name": "getTotalBacking",
      "outputs": [
        {
          "internalType": "uint256",
          "name": "",
          "type": "uint256"
        }
      ],
      "stateMutability": "view",
      "type": "function"
    },
    {
      "inputs": [
        {
          "internalType": "uint256",
          "name": "susdeAmount",
          "type": "uint256"
        }
      ],
      "name": "mint",
      "outputs": [
        {
          "internalType": "uint256",
          "name": "",
          "type": "uint256"
        }
      ],
      "stateMutability": "nonpayable",
      "type": "function"
    },
    {
      "inputs": [],
      "name": "name",
      "outputs": [
        {
          "internalType": "string",
          "name": "",
          "type": "string"
        }
      ],
      "stateMutability": "view",
      "type": "function"
    },
    {
      "inputs": [],
      "name": "owner",
      "outputs": [
        {
          "internalType": "address",
          "name": "",
          "type": "address"
        }
      ],
      "stateMutability": "view",
      "type": "function"
    },
    {
      "inputs": [],
      "name": "renounceOwnership",
      "outputs": [],
      "stateMutability": "nonpayable",
      "type": "function"
    },
    {
      "inputs": [
        {
          "internalType": "address",
          "name": "_vault",
          "type": "address"
        }
      ],
      "name": "setVault",
      "outputs": [],
      "stateMutability": "nonpayable",
      "type": "function"
    },
    {
      "inputs": [],
      "name": "susde",
      "outputs": [
        {
          "internalType": "contract IERC20",
          "name": "",
          "type": "address"
        }
      ],
      "stateMutability": "view",
      "type": "function"
    },
    {
      "inputs": [],
      "name": "symbol",
      "outputs": [
        {
          "internalType": "string",
          "name": "",
          "type": "string"
        }
      ],
      "stateMutability": "view",
      "type": "function"
    },
    {
      "inputs": [],
      "name": "totalSupply",
      "outputs": [
        {
          "internalType": "uint256",
          "name": "",
          "type": "uint256"
        }
      ],
      "stateMutability": "view",
      "type": "function"
    },
    {
      "inputs": [
        {
          "internalType": "address",
          "name": "to",
          "type": "address"
        },
        {
          "internalType": "uint256",
          "name": "value",
          "type": "uint256"
        }
      ],
      "name": "transfer",
      "outputs": [
        {
          "internalType": "bool",
          "name": "",
          "type": "bool"
        }
      ],
      "stateMutability": "nonpayable",
      "type": "function"
    },
    {
      "inputs": [
        {
          "internalType": "address",
          "name": "from",
          "type": "address"
        },
        {
          "internalType": "address",
          "name": "to",
          "type": "address"
        },
        {
          "internalType": "uint256",
          "name": "value",
          "type": "uint256"
        }
      ],
      "name": "transferFrom",
      "outputs": [
        {
          "internalType": "bool",
          "name": "",
          "type": "bool"
        }
      ],
      "stateMutability": "nonpayable",
      "type": "function"
    },
    {
      "inputs": [
        {
          "internalType": "address",
          "name": "newOwner",
          "type": "address"
        }
      ],
      "name": "transferOwnership",
      "outputs": [],
      "stateMutability": "nonpayable",
      "type": "function"
    },
    {
      "inputs": [],
      "name": "vault",
      "outputs": [
        {
          "internalType": "address",
          "name": "",
          "type": "address"
        }
      ],
      "stateMutability": "view",
      "type": "function"
    }
  ],
  "bytecode": "0x60a060405234801561000f575f5ffd5b5060405161149d38038061149d83398101604081905261002e91610128565b336040518060400160405280600a8152602001695969656c64205553446560b01b81525060405180604001604052806005815260200164795553446560d81b815250816003908161007f91906101ed565b50600461008c82826101ed565b5050506001600160a01b0381166100bc57604051631e4fbdf760e01b81525f600482015260240160405180910390fd5b6100c5816100d7565b506001600160a01b03166080526102a7565b600580546001600160a01b038381166001600160a01b0319831681179093556040519116919082907f8be0079c531659141344cd1fd0a4f28419497f9722a3daafe3b4186f6b6457e0905f90a35050565b5f60208284031215610138575f5ffd5b81516001600160a01b038116811461014e575f5ffd5b9392505050565b634e487b7160e01b5f52604160045260245ffd5b600181811c9082168061017d57607f821691505b60208210810361019b57634e487b7160e01b5f52602260045260245ffd5b50919050565b601f8211156101e857805f5260205f20601f840160051c810160208510156101c65750805b601f840160051c820191505b818110156101e5575f81556001016101d2565b50505b505050565b81516001600160401b0381111561020657610206610155565b61021a816102148454610169565b846101a1565b6020601f82116001811461024c575f83156102355750848201515b5f19600385901b1c1916600184901b1784556101e5565b5f84815260208120601f198516915b8281101561027b578785015182556020948501946001909201910161025b565b508482101561029857868401515f19600387901b60f8161c191681555b50505050600190811b01905550565b6080516111ad6102f05f395f8181610151015281816104040152818161058c015281816106690152818161073d015281816107f5015281816109a20152610aa001526111ad5ff3fe608060405234801561000f575f5ffd5b5060043610610148575f3560e01c806370a08231116100bf578063bdc7c12b11610079578063bdc7c12b146102b7578063bec4c1d4146102ca578063d9e69a05146102dd578063dd62ed3e146102e6578063f2fde38b1461031e578063fbfa77cf14610331575f5ffd5b806370a0823114610248578063715018a6146102705780638da5cb5b1461027857806395d89b4114610289578063a0712d6814610291578063a9059cbb146102a4575f5ffd5b806323b872dd1161011057806323b872dd146101e2578063313ce567146101f557806342966c68146102045780635312ea8e146102175780636817031b1461022c5780636e1451281461023f575f5ffd5b8063032988da1461014c57806306fdde0314610190578063095ea7b3146101a557806318160ddd146101c857806319f04174146101da575b5f5ffd5b6101737f000000000000000000000000000000000000000000000000000000000000000081565b6040516001600160a01b0390911681526020015b60405180910390f35b610198610344565b6040516101879190610f92565b6101b86101b3366004610fe2565b6103d4565b6040519015158152602001610187565b6002545b604051908152602001610187565b6101cc6103ed565b6101b86101f036600461100a565b61047a565b60405160128152602001610187565b6101cc610212366004611044565b61049d565b61022a610225366004611044565b61071e565b005b61022a61023a36600461105b565b6108a6565b6101cc61271081565b6101cc61025636600461105b565b6001600160a01b03165f9081526020819052604090205490565b61022a6108d0565b6005546001600160a01b0316610173565b6101986108e3565b6101cc61029f366004611044565b6108f2565b6101b86102b2366004610fe2565b610b55565b6101cc6102c5366004611044565b610b62565b6101cc6102d8366004611044565b610b7c565b6101cc611f4081565b6101cc6102f436600461107b565b6001600160a01b039182165f90815260016020908152604080832093909416825291909152205490565b61022a61032c36600461105b565b610b8c565b600654610173906001600160a01b031681565b606060038054610353906110ac565b80601f016020809104026020016040519081016040528092919081815260200182805461037f906110ac565b80156103ca5780601f106103a1576101008083540402835291602001916103ca565b820191905f5260205f20905b8154815290600101906020018083116103ad57829003601f168201915b5050505050905090565b5f336103e1818585610bc9565b60019150505b92915050565b6040516370a0823160e01b81523060048201525f907f00000000000000000000000000000000000000000000000000000000000000006001600160a01b0316906370a0823190602401602060405180830381865afa158015610451573d5f5f3e3d5ffd5b505050506040513d601f19601f8201168201806040525081019061047591906110e4565b905090565b5f33610487858285610bdb565b610492858585610c57565b506001949350505050565b5f5f82116104f25760405162461bcd60e51b815260206004820152601d60248201527f416d6f756e74206d7573742062652067726561746572207468616e203000000060448201526064015b60405180910390fd5b335f908152602081905260409020548211156105505760405162461bcd60e51b815260206004820152601a60248201527f496e73756666696369656e742079555344652062616c616e636500000000000060448201526064016104e9565b5f611f406105606127108561110f565b61056a9190611126565b6040516370a0823160e01b815230600482015290915081906001600160a01b037f000000000000000000000000000000000000000000000000000000000000000016906370a0823190602401602060405180830381865afa1580156105d1573d5f5f3e3d5ffd5b505050506040513d601f19601f820116820180604052508101906105f591906110e4565b10156106435760405162461bcd60e51b815260206004820152601e60248201527f496e73756666696369656e7420735553446520696e20636f6e7472616374000060448201526064016104e9565b61064d3384610cb4565b60405163a9059cbb60e01b8152336004820152602481018290527f00000000000000000000000000000000000000000000000000000000000000006001600160a01b03169063a9059cbb906044016020604051808303815f875af11580156106b7573d5f5f3e3d5ffd5b505050506040513d601f19601f820116820180604052508101906106db9190611145565b50604080518481526020810183905233917f23ff0e75edf108e3d0392d92e13e8c8a868ef19001bd49f9e94876dc46dff87f91015b60405180910390a292915050565b610726610ce8565b6040516370a0823160e01b815230600482015281907f00000000000000000000000000000000000000000000000000000000000000006001600160a01b0316906370a0823190602401602060405180830381865afa15801561078a573d5f5f3e3d5ffd5b505050506040513d601f19601f820116820180604052508101906107ae91906110e4565b10156107f35760405162461bcd60e51b8152602060048201526014602482015273496e73756666696369656e742062616c616e636560601b60448201526064016104e9565b7f00000000000000000000000000000000000000000000000000000000000000006001600160a01b031663a9059cbb6108346005546001600160a01b031690565b6040516001600160e01b031960e084901b1681526001600160a01b039091166004820152602481018490526044016020604051808303815f875af115801561087e573d5f5f3e3d5ffd5b505050506040513d601f19601f820116820180604052508101906108a29190611145565b5050565b6108ae610ce8565b600680546001600160a01b0319166001600160a01b0392909216919091179055565b6108d8610ce8565b6108e15f610d15565b565b606060048054610353906110ac565b6006545f906001600160a01b031661093c5760405162461bcd60e51b815260206004820152600d60248201526c15985d5b1d081b9bdd081cd95d609a1b60448201526064016104e9565b5f821161098b5760405162461bcd60e51b815260206004820152601d60248201527f416d6f756e74206d7573742062652067726561746572207468616e203000000060448201526064016104e9565b6040516370a0823160e01b815233600482015282907f00000000000000000000000000000000000000000000000000000000000000006001600160a01b0316906370a0823190602401602060405180830381865afa1580156109ef573d5f5f3e3d5ffd5b505050506040513d601f19601f82011682018060405250810190610a1391906110e4565b1015610a615760405162461bcd60e51b815260206004820152601a60248201527f496e73756666696369656e742073555344652062616c616e636500000000000060448201526064016104e9565b5f612710610a71611f408561110f565b610a7b9190611126565b6040516323b872dd60e01b8152336004820152306024820152604481018590529091507f00000000000000000000000000000000000000000000000000000000000000006001600160a01b0316906323b872dd906064016020604051808303815f875af1158015610aee573d5f5f3e3d5ffd5b505050506040513d601f19601f82011682018060405250810190610b129190611145565b50610b1d3382610d66565b604080518481526020810183905233917f25b428dfde728ccfaddad7e29e4ac23c24ed7fd1a6e3e3f91894a9a073f5dfff9101610710565b5f336103e1818585610c57565b5f612710610b72611f408461110f565b6103e79190611126565b5f611f40610b726127108461110f565b610b94610ce8565b6001600160a01b038116610bbd57604051631e4fbdf760e01b81525f60048201526024016104e9565b610bc681610d15565b50565b610bd68383836001610d9a565b505050565b6001600160a01b038381165f908152600160209081526040808320938616835292905220545f19811015610c515781811015610c4357604051637dc7a0d960e11b81526001600160a01b038416600482015260248101829052604481018390526064016104e9565b610c5184848484035f610d9a565b50505050565b6001600160a01b038316610c8057604051634b637e8f60e11b81525f60048201526024016104e9565b6001600160a01b038216610ca95760405163ec442f0560e01b81525f60048201526024016104e9565b610bd6838383610e6c565b6001600160a01b038216610cdd57604051634b637e8f60e11b81525f60048201526024016104e9565b6108a2825f83610e6c565b6005546001600160a01b031633146108e15760405163118cdaa760e01b81523360048201526024016104e9565b600580546001600160a01b038381166001600160a01b0319831681179093556040519116919082907f8be0079c531659141344cd1fd0a4f28419497f9722a3daafe3b4186f6b6457e0905f90a35050565b6001600160a01b038216610d8f5760405163ec442f0560e01b81525f60048201526024016104e9565b6108a25f8383610e6c565b6001600160a01b038416610dc35760405163e602df0560e01b81525f60048201526024016104e9565b6001600160a01b038316610dec57604051634a1406b160e11b81525f60048201526024016104e9565b6001600160a01b038085165f9081526001602090815260408083209387168352929052208290558015610c5157826001600160a01b0316846001600160a01b03167f8c5be1e5ebec7d5bd14f71427d1e84f3dd0314c0f7b2291e5b200ac8c7c3b92584604051610e5e91815260200190565b60405180910390a350505050565b6001600160a01b038316610e96578060025f828254610e8b9190611164565b90915550610f069050565b6001600160a01b0383165f9081526020819052604090205481811015610ee85760405163391434e360e21b81526001600160a01b038516600482015260248101829052604481018390526064016104e9565b6001600160a01b0384165f9081526020819052604090209082900390555b6001600160a01b038216610f2257600280548290039055610f40565b6001600160a01b0382165f9081526020819052604090208054820190555b816001600160a01b0316836001600160a01b03167fddf252ad1be2c89b69c2b068fc378daa952ba7f163c4a11628f55a4df523b3ef83604051610f8591815260200190565b60405180910390a3505050565b602081525f82518060208401528060208501604085015e5f604082850101526040601f19601f83011684010191505092915050565b80356001600160a01b0381168114610fdd575f5ffd5b919050565b5f5f60408385031215610ff3575f5ffd5b610ffc83610fc7565b946020939093013593505050565b5f5f5f6060848603121561101c575f5ffd5b61102584610fc7565b925061103360208501610fc7565b929592945050506040919091013590565b5f60208284031215611054575f5ffd5b5035919050565b5f6020828403121561106b575f5ffd5b61107482610fc7565b9392505050565b5f5f6040838503121561108c575f5ffd5b61109583610fc7565b91506110a360208401610fc7565b90509250929050565b600181811c908216806110c057607f821691505b6020821081036110de57634e487b7160e01b5f52602260045260245ffd5b50919050565b5f602082840312156110f4575f5ffd5b5051919050565b634e487b7160e01b5f52601160045260245ffd5b80820281158282048414176103e7576103e76110fb565b5f8261114057634e487b7160e01b5f52601260045260245ffd5b500490565b5f60208284031215611155575f5ffd5b81518015158114611074575f5ffd5b808201808211156103e7576103e76110fb56fea2646970667358221220e024916a4a035d428d75eb91ec00646c269856b978790aa02897b44a23a2f7af64736f6c634300081c0033",
  "linkReferences": {},
  "deployedLinkReferences": {},
  "immutableReferences": {
    "949": [
      {
        "length": 32,
        "start": 337
      },
      {
        "length": 32,
        "start": 1028
      },
      {
        "length": 32,
        "start": 1420
      },
      {
        "length": 32,
        "start": 1641
      },
      {
        "length": 32,
        "start": 1853
      },
      {
        "length": 32,
        "start": 2037
      },
      {
        "length": 32,
        "start": 2466
      },
      {
        "length": 32,
        "start": 2720
      }
    ]
  },
  "inputSourceName": "project/contracts/YUSDe.sol",
  "buildInfoId": "solc-0_8_28-d6ea2aa133e3896c7b3cf382ccd7b29e1c392d48"
}