{
  "_format": "hh3-artifact-1",
  "contractName": "Vault",
  "sourceName": "contracts/Vault.sol",
  "abi": [
    {
      "inputs": [
        {
          "internalType": "address",
          "name": "_usde",
          "type": "address"
        },
        {
          "internalType": "address",
          "name": "_yieldEngine",
          "type": "address"
        },
        {
          "internalType": "address",
          "name": "_yusde",
          "type": "address"
        }
      ],
      "stateMutability": "nonpayable",
      "type": "constructor"
    },
    {
      "inputs": [
        {
          "internalType": "address",
          "name": "owner",
          "type": "address"
        }
      ],
      "name": "OwnableInvalidOwner",
      "type": "error"
    },
    {
      "inputs": [
        {
          "internalType": "address",
          "name": "account",
          "type": "address"
        }
      ],
      "name": "OwnableUnauthorizedAccount",
      "type": "error"
    },
    {
      "inputs": [],
      "name": "ReentrancyGuardReentrantCall",
      "type": "error"
    },
    {
      "anonymous": false,
      "inputs": [
        {
          "indexed": true,
          "internalType": "address",
          "name": "user",
          "type": "address"
        },
        {
          "indexed": false,
          "internalType": "uint256",
          "name": "usdeAmount",
          "type": "uint256"
        },
        {
          "indexed": false,
          "internalType": "uint256",
          "name": "susdeAmount",
          "type": "uint256"
        }
      ],
      "name": "Deposited",
      "type": "event"
    },
    {
      "anonymous": false,
      "inputs": [
        {
          "indexed": true,
          "internalType": "address",
          "name": "previousOwner",
          "type": "address"
        },
        {
          "indexed": true,
          "internalType": "address",
          "name": "newOwner",
          "type": "address"
        }
      ],
      "name": "OwnershipTransferred",
      "type": "event"
    },
    {
      "anonymous": false,
      "inputs": [
        {
          "indexed": true,
          "internalType": "address",
          "name": "user",
          "type": "address"
        },
        {
          "indexed": false,
          "internalType": "uint256",
          "name": "susdeAmount",
          "type": "uint256"
        },
        {
          "indexed": false,
          "internalType": "uint256",
          "name": "usdeAmount",
          "type": "uint256"
        }
      ],
      "name": "Withdrawn",
      "type": "event"
    },
    {
      "anonymous": false,
      "inputs": [
        {
          "indexed": true,
          "internalType": "address",
          "name": "user",
          "type": "address"
        },
        {
          "indexed": false,
          "internalType": "uint256",
          "name": "susdeAmount",
          "type": "uint256"
        },
        {
          "indexed": false,
          "internalType": "uint256",
          "name": "yusdeAmount",
          "type": "uint256"
        }
      ],
      "name": "YUSDeMinted",
      "type": "event"
    },
    {
      "anonymous": false,
      "inputs": [
        {
          "indexed": true,
          "internalType": "address",
          "name": "user",
          "type": "address"
        },
        {
          "indexed": false,
          "internalType": "uint256",
          "name": "yusdeAmount",
          "type": "uint256"
        },
        {
          "indexed": false,
          "internalType": "uint256",
          "name": "susdeAmount",
          "type": "uint256"
        }
      ],
      "name": "YUSDeRedeemed",
      "type": "event"
    },
    {
      "inputs": [],
      "name": "claimYield",
      "outputs": [],
      "stateMutability": "nonpayable",
      "type": "function"
    },
    {
      "inputs": [
        {
          "internalType": "uint256",
          "name": "amount",
          "type": "uint256"
        }
      ],
      "name": "deposit",
      "outputs": [],
      "stateMutability": "nonpayable",
      "type": "function"
    },
    {
      "inputs": [
        {
          "internalType": "uint256",
          "name": "amount",
          "type": "uint256"
        }
      ],
      "name": "emergencyWithdraw",
      "outputs": [],
      "stateMutability": "nonpayable",
      "type": "function"
    },
    {
      "inputs": [
        {
          "internalType": "address",
          "name": "user",
          "type": "address"
        }
      ],
      "name": "getUserBalance",
      "outputs": [
        {
          "internalType": "uint256",
          "name": "",
          "type": "uint256"
        }
      ],
      "stateMutability": "view",
      "type": "function"
    },
    {
      "inputs": [
        {
          "internalType": "address",
          "name": "user",
          "type": "address"
        }
      ],
      "name": "getUserSUSDeBalance",
      "outputs": [
        {
          "internalType": "uint256",
          "name": "",
          "type": "uint256"
        }
      ],
      "stateMutability": "view",
      "type": "function"
    },
    {
      "inputs": [
        {
          "internalType": "address",
          "name": "user",
          "type": "address"
        }
      ],
      "name": "getUserYUSDeBalance",
      "outputs": [
        {
          "internalType": "uint256",
          "name": "",
          "type": "uint256"
        }
      ],
      "stateMutability": "view",
      "type": "function"
    },
    {
      "inputs": [
        {
          "internalType": "address",
          "name": "user",
          "type": "address"
        }
      ],
      "name": "getUserYield",
      "outputs": [
        {
          "internalType": "uint256",
          "name": "",
          "type": "uint256"
        }
      ],
      "stateMutability": "view",
      "type": "function"
    },
    {
      "inputs": [],
      "name": "getVaultInfo",
      "outputs": [
        {
          "internalType": "uint256",
          "name": "totalDeposits_",
          "type": "uint256"
        },
        {
          "internalType": "uint256",
          "name": "totalStaked",
          "type": "uint256"
        },
        {
          "internalType": "uint256",
          "name": "totalYUSDe",
          "type": "uint256"
        }
      ],
      "stateMutability": "view",
      "type": "function"
    },
    {
      "inputs": [
        {
          "internalType": "uint256",
          "name": "susdeAmount",
          "type": "uint256"
        }
      ],
      "name": "mintYUSDe",
      "outputs": [
        {
          "internalType": "uint256",
          "name": "",
          "type": "uint256"
        }
      ],
      "stateMutability": "nonpayable",
      "type": "function"
    },
    {
      "inputs": [],
      "name": "owner",
      "outputs": [
        {
          "internalType": "address",
          "name": "",
          "type": "address"
        }
      ],
      "stateMutability": "view",
      "type": "function"
    },
    {
      "inputs": [
        {
          "internalType": "uint256",
          "name": "yusdeAmount",
          "type": "uint256"
        }
      ],
      "name": "redeemYUSDe",
      "outputs": [
        {
          "internalType": "uint256",
          "name": "",
          "type": "uint256"
        }
      ],
      "stateMutability": "nonpayable",
      "type": "function"
    },
    {
      "inputs": [],
      "name": "renounceOwnership",
      "outputs": [],
      "stateMutability": "nonpayable",
      "type": "function"
    },
    {
      "inputs": [],
      "name": "totalDeposits",
      "outputs": [
        {
          "internalType": "uint256",
          "name": "",
          "type": "uint256"
        }
      ],
      "stateMutability": "view",
      "type": "function"
    },
    {
      "inputs": [
        {
          "internalType": "address",
          "name": "newOwner",
          "type": "address"
        }
      ],
      "name": "transferOwnership",
      "outputs": [],
      "stateMutability": "nonpayable",
      "type": "function"
    },
    {
      "inputs": [],
      "name": "usde",
      "outputs": [
        {
          "internalType": "contract IERC20",
          "name": "",
          "type": "address"
        }
      ],
      "stateMutability": "view",
      "type": "function"
    },
    {
      "inputs": [
        {
          "internalType": "address",
          "name": "",
          "type": "address"
        }
      ],
      "name": "userDeposits",
      "outputs": [
        {
          "internalType": "uint256",
          "name": "",
          "type": "uint256"
        }
      ],
      "stateMutability": "view",
      "type": "function"
    },
    {
      "inputs": [
        {
          "internalType": "uint256",
          "name": "amount",
          "type": "uint256"
        }
      ],
      "name": "withdraw",
      "outputs": [],
      "stateMutability": "nonpayable",
      "type": "function"
    },
    {
      "inputs": [],
      "name": "yieldEngine",
      "outputs": [
        {
          "internalType": "contract YieldEngine",
          "name": "",
          "type": "address"
        }
      ],
      "stateMutability": "view",
      "type": "function"
    },
    {
      "inputs": [],
      "name": "yusde",
      "outputs": [
        {
          "internalType": "contract YUSDe",
          "name": "",
          "type": "address"
        }
      ],
      "stateMutability": "view",
      "type": "function"
    }
  ],
  "bytecode": "0x60e060405234801561000f575f5ffd5b5060405161160d38038061160d83398101604081905261002e916100e8565b338061005357604051631e4fbdf760e01b81525f600482015260240160405180910390fd5b61005c8161007e565b50600180556001600160a01b0392831660805290821660a0521660c052610128565b5f80546001600160a01b038381166001600160a01b0319831681178455604051919092169283917f8be0079c531659141344cd1fd0a4f28419497f9722a3daafe3b4186f6b6457e09190a35050565b80516001600160a01b03811681146100e3575f5ffd5b919050565b5f5f5f606084860312156100fa575f5ffd5b610103846100cd565b9250610111602085016100cd565b915061011f604085016100cd565b90509250925092565b60805160a05160c05161141a6101f35f395f81816102a401528181610424015281816104d601528181610b3d01528181610c0b01528181610ccf0152610da601525f81816102cb0152818161034801528181610453015281816105b8015281816106c5015281816108cc0152818161096401528181610b8901528181610e370152818161108b015261113b01525f81816101570152818161077701528181610807015281816109b401528181610a6c01528181610f200152818161100101526110ba015261141a5ff3fe608060405234801561000f575f5ffd5b506004361061011c575f3560e01c80636350b717116100a95780638da5cb5b1161006e5780638da5cb5b1461027c578063b6b55f251461028c578063cb80425d1461029f578063d7bf3c96146102c6578063f2fde38b146102ed575f5ffd5b80636350b71714610222578063715018a6146102355780637d8820971461023d5780637f98aa71146102465780638be69c7914610269575f5ffd5b80632e1a7d4d116100ef5780632e1a7d4d146101b7578063406cf229146101cc5780634229abdd146101d457806347734892146101e75780635312ea8e1461020f575f5ffd5b80630ba36dcd146101205780630fd761e0146101525780631068e2ef1461019157806318fe020c146101a4575b5f5ffd5b61013f61012e3660046112f9565b60026020525f908152604090205481565b6040519081526020015b60405180910390f35b6101797f000000000000000000000000000000000000000000000000000000000000000081565b6040516001600160a01b039091168152602001610149565b61013f61019f366004611326565b610300565b61013f6101b23660046112f9565b610597565b6101ca6101c5366004611326565b61062a565b005b6101ca6108c2565b61013f6101e23660046112f9565b610943565b61013f6101f53660046112f9565b6001600160a01b03165f9081526002602052604090205490565b6101ca61021d366004611326565b610995565b61013f6102303660046112f9565b610b1c565b6101ca610b6e565b61013f60035481565b61024e610b7f565b60408051938452602084019290925290820152606001610149565b61013f610277366004611326565b610c90565b5f546001600160a01b0316610179565b6101ca61029a366004611326565b610ee2565b6101797f000000000000000000000000000000000000000000000000000000000000000081565b6101797f000000000000000000000000000000000000000000000000000000000000000081565b6101ca6102fb3660046112f9565b61121a565b5f610309611254565b5f82116103315760405162461bcd60e51b81526004016103289061133d565b60405180910390fd5b6040516370a0823160e01b815233600482015282907f00000000000000000000000000000000000000000000000000000000000000006001600160a01b0316906370a0823190602401602060405180830381865afa158015610395573d5f5f3e3d5ffd5b505050506040513d601f19601f820116820180604052508101906103b99190611374565b10156104075760405162461bcd60e51b815260206004820152601a60248201527f496e73756666696369656e742073555344652062616c616e63650000000000006044820152606401610328565b6040516323b872dd60e01b81523360048201526001600160a01b037f000000000000000000000000000000000000000000000000000000000000000081166024830152604482018490527f000000000000000000000000000000000000000000000000000000000000000016906323b872dd906064016020604051808303815f875af1158015610499573d5f5f3e3d5ffd5b505050506040513d601f19601f820116820180604052508101906104bd919061138b565b5060405163140e25ad60e31b8152600481018390525f907f00000000000000000000000000000000000000000000000000000000000000006001600160a01b03169063a0712d68906024016020604051808303815f875af1158015610524573d5f5f3e3d5ffd5b505050506040513d601f19601f820116820180604052508101906105489190611374565b604080518581526020810183905291925033917fe6a87ddedd91e753f6f15bdc4bca1b34f3b13f0860e6dab83b6330db3e07d31991015b60405180910390a2905061059260018055565b919050565b6040516370a0823160e01b81526001600160a01b0382811660048301525f917f0000000000000000000000000000000000000000000000000000000000000000909116906370a08231906024015b602060405180830381865afa158015610600573d5f5f3e3d5ffd5b505050506040513d601f19601f820116820180604052508101906106249190611374565b92915050565b610632611254565b5f81116106515760405162461bcd60e51b81526004016103289061133d565b335f908152600260205260409020548111156106af5760405162461bcd60e51b815260206004820152601c60248201527f496e73756666696369656e74206465706f7369742062616c616e6365000000006044820152606401610328565b6040516305c2fbcf60e31b8152600481018290527f00000000000000000000000000000000000000000000000000000000000000006001600160a01b031690632e17de78906024015f604051808303815f87803b15801561070e575f5ffd5b505af1158015610720573d5f5f3e3d5ffd5b5050335f90815260026020526040812080548594509092506107439084906113be565b925050819055508060035f82825461075b91906113be565b90915550506040516370a0823160e01b81523060048201525f907f00000000000000000000000000000000000000000000000000000000000000006001600160a01b0316906370a0823190602401602060405180830381865afa1580156107c4573d5f5f3e3d5ffd5b505050506040513d601f19601f820116820180604052508101906107e89190611374565b60405163a9059cbb60e01b8152336004820152602481018290529091507f00000000000000000000000000000000000000000000000000000000000000006001600160a01b03169063a9059cbb906044016020604051808303815f875af1158015610855573d5f5f3e3d5ffd5b505050506040513d601f19601f82011682018060405250810190610879919061138b565b50604080518381526020810183905233917f92ccf450a286a957af52509bc1c9939d1a6a481783e142e41e2499f0bb66ebc6910160405180910390a2506108bf60018055565b50565b6108ca611254565b7f00000000000000000000000000000000000000000000000000000000000000006001600160a01b031663406cf2296040518163ffffffff1660e01b81526004015f604051808303815f87803b158015610922575f5ffd5b505af1158015610934573d5f5f3e3d5ffd5b5050505061094160018055565b565b604051634229abdd60e01b81526001600160a01b0382811660048301525f917f000000000000000000000000000000000000000000000000000000000000000090911690634229abdd906024016105e5565b61099d61127e565b6040516370a0823160e01b815230600482015281907f00000000000000000000000000000000000000000000000000000000000000006001600160a01b0316906370a0823190602401602060405180830381865afa158015610a01573d5f5f3e3d5ffd5b505050506040513d601f19601f82011682018060405250810190610a259190611374565b1015610a6a5760405162461bcd60e51b8152602060048201526014602482015273496e73756666696369656e742062616c616e636560601b6044820152606401610328565b7f00000000000000000000000000000000000000000000000000000000000000006001600160a01b031663a9059cbb610aaa5f546001600160a01b031690565b6040516001600160e01b031960e084901b1681526001600160a01b039091166004820152602481018490526044016020604051808303815f875af1158015610af4573d5f5f3e3d5ffd5b505050506040513d601f19601f82011682018060405250810190610b18919061138b565b5050565b6040516370a0823160e01b81526001600160a01b0382811660048301525f917f0000000000000000000000000000000000000000000000000000000000000000909116906370a08231906024016105e5565b610b7661127e565b6109415f6112aa565b5f5f5f60035492507f00000000000000000000000000000000000000000000000000000000000000006001600160a01b0316630917e7766040518163ffffffff1660e01b8152600401602060405180830381865afa158015610be3573d5f5f3e3d5ffd5b505050506040513d601f19601f82011682018060405250810190610c079190611374565b91507f00000000000000000000000000000000000000000000000000000000000000006001600160a01b03166318160ddd6040518163ffffffff1660e01b8152600401602060405180830381865afa158015610c65573d5f5f3e3d5ffd5b505050506040513d601f19601f82011682018060405250810190610c899190611374565b9050909192565b5f610c99611254565b5f8211610cb85760405162461bcd60e51b81526004016103289061133d565b6040516370a0823160e01b815233600482015282907f00000000000000000000000000000000000000000000000000000000000000006001600160a01b0316906370a0823190602401602060405180830381865afa158015610d1c573d5f5f3e3d5ffd5b505050506040513d601f19601f82011682018060405250810190610d409190611374565b1015610d8e5760405162461bcd60e51b815260206004820152601a60248201527f496e73756666696369656e742079555344652062616c616e63650000000000006044820152606401610328565b604051630852cd8d60e31b8152600481018390525f907f00000000000000000000000000000000000000000000000000000000000000006001600160a01b0316906342966c68906024016020604051808303815f875af1158015610df4573d5f5f3e3d5ffd5b505050506040513d601f19601f82011682018060405250810190610e189190611374565b60405163a9059cbb60e01b8152336004820152602481018290529091507f00000000000000000000000000000000000000000000000000000000000000006001600160a01b03169063a9059cbb906044016020604051808303815f875af1158015610e85573d5f5f3e3d5ffd5b505050506040513d601f19601f82011682018060405250810190610ea9919061138b565b50604080518481526020810183905233917f09184e782229e861b21987fd058b77c8d83105ece717b76b370bfaa359649272910161057f565b610eea611254565b5f8111610f095760405162461bcd60e51b81526004016103289061133d565b6040516370a0823160e01b815233600482015281907f00000000000000000000000000000000000000000000000000000000000000006001600160a01b0316906370a0823190602401602060405180830381865afa158015610f6d573d5f5f3e3d5ffd5b505050506040513d601f19601f82011682018060405250810190610f919190611374565b1015610fdf5760405162461bcd60e51b815260206004820152601960248201527f496e73756666696369656e7420555344652062616c616e6365000000000000006044820152606401610328565b6040516323b872dd60e01b8152336004820152306024820152604481018290527f00000000000000000000000000000000000000000000000000000000000000006001600160a01b0316906323b872dd906064016020604051808303815f875af115801561104f573d5f5f3e3d5ffd5b505050506040513d601f19601f82011682018060405250810190611073919061138b565b5060405163095ea7b360e01b81526001600160a01b037f000000000000000000000000000000000000000000000000000000000000000081166004830152602482018390527f0000000000000000000000000000000000000000000000000000000000000000169063095ea7b3906044016020604051808303815f875af1158015611100573d5f5f3e3d5ffd5b505050506040513d601f19601f82011682018060405250810190611124919061138b565b5060405163534a7e1d60e11b8152600481018290527f00000000000000000000000000000000000000000000000000000000000000006001600160a01b03169063a694fc3a906024015f604051808303815f87803b158015611184575f5ffd5b505af1158015611196573d5f5f3e3d5ffd5b5050335f90815260026020526040812080548594509092506111b99084906113d1565b925050819055508060035f8282546111d191906113d1565b9091555050604080518281526020810183905233917f73a19dd210f1a7f902193214c0ee91dd35ee5b4d920cba8d519eca65a7b488ca910160405180910390a26108bf60018055565b61122261127e565b6001600160a01b03811661124b57604051631e4fbdf760e01b81525f6004820152602401610328565b6108bf816112aa565b60026001540361127757604051633ee5aeb560e01b815260040160405180910390fd5b6002600155565b5f546001600160a01b031633146109415760405163118cdaa760e01b8152336004820152602401610328565b5f80546001600160a01b038381166001600160a01b0319831681178455604051919092169283917f8be0079c531659141344cd1fd0a4f28419497f9722a3daafe3b4186f6b6457e09190a35050565b5f60208284031215611309575f5ffd5b81356001600160a01b038116811461131f575f5ffd5b9392505050565b5f60208284031215611336575f5ffd5b5035919050565b6020808252601d908201527f416d6f756e74206d7573742062652067726561746572207468616e2030000000604082015260600190565b5f60208284031215611384575f5ffd5b5051919050565b5f6020828403121561139b575f5ffd5b8151801515811461131f575f5ffd5b634e487b7160e01b5f52601160045260245ffd5b81810381811115610624576106246113aa565b80820180821115610624576106246113aa56fea26469706673582212208a904cde1baccc47d1f789988d27811c20ffecdcdfa8cd55937354d06d1f4b8764736f6c634300081c0033",
  "linkReferences": {},
  "deployedLinkReferences": {},
  "immutableReferences": {
    "1022": [
      {
        "length": 32,
        "start": 343
      },
      {
        "length": 32,
        "start": 1911
      },
      {
        "length": 32,
        "start": 2055
      },
      {
        "length": 32,
        "start": 2484
      },
      {
        "length": 32,
        "start": 2668
      },
      {
        "length": 32,
        "start": 3872
      },
      {
        "length": 32,
        "start": 4097
      },
      {
        "length": 32,
        "start": 4282
      }
    ],
    "1025": [
      {
        "length": 32,
        "start": 715
      },
      {
        "length": 32,
        "start": 840
      },
      {
        "length": 32,
        "start": 1107
      },
      {
        "length": 32,
        "start": 1464
      },
      {
        "length": 32,
        "start": 1733
      },
      {
        "length": 32,
        "start": 2252
      },
      {
        "length": 32,
        "start": 2404
      },
      {
        "length": 32,
        "start": 2953
      },
      {
        "length": 32,
        "start": 3639
      },
      {
        "length": 32,
        "start": 4235
      },
      {
        "length": 32,
        "start": 4411
      }
    ],
    "1028": [
      {
        "length": 32,
        "start": 676
      },
      {
        "length": 32,
        "start": 1060
      },
      {
        "length": 32,
        "start": 1238
      },
      {
        "length": 32,
        "start": 2877
      },
      {
        "length": 32,
        "start": 3083
      },
      {
        "length": 32,
        "start": 3279
      },
      {
        "length": 32,
        "start": 3494
      }
    ]
  },
  "inputSourceName": "project/contracts/Vault.sol",
  "buildInfoId": "solc-0_8_28-289f65ac88d34c9a3d1adff2d82ba7a3c50f827a"
}